:100000000C942A000C9447000C9447000C94470071
:100010000C9447000C9447000C9447000C94470044
:100020000C9447000C9447000C9447000C94470034
:100030000C9447000C9447000C9447000C94470024
:100040000C9447000C9447000C9447000C94470014
:100050000C94470011241FBECFE5D4E0DEBFCDBF16
:1000600012E0A0E6B0E0E8EFF7E102C005900D92E3
:10007000A23AB107D9F722E0A2EAB2E001C01D928C
:10008000AF3CB207E1F70E942D080C94FA0B0C94D8
:10009000000010BC83E389B98AB188618AB986E817
:1000A00080BD08955D9BFECF8CB908955F9BFECF08
:1000B0008CB10895CF93DF93EC018881811103C047
:1000C000DF91CF91089521960E945200F6CF1F93A1
:1000D000CF93DF9300D000D00F92CDB7DEB79C0155
:1000E00010E0892B59F480E30F900F900F900F9040
:1000F0000F90DF91CF911F910C945200C9016AE0DB
:1001000070E00E94F909FE013196E10FF11D805D5A
:100110008083C9019B011F5F0A9780F7111109C0F5
:100120000F900F900F900F900F90DF91CF911F9134
:1001300008951150FE013196E10FF11D80810E945A
:100140005200ECCFCF92DF92EF92FF921F93CF93AA
:10015000DF93CDB7DEB72A970FB6F894DEBF0FBE98
:10016000CDBF6B017C0110E0C114D104E104F104A6
:1001700081F480E32A960FB6F894DEBF0FBECDBFA0
:10018000DF91CF911F91FF90EF90DF90CF900C9473
:100190005200B601C7012AE030E040E050E00E9482
:1001A0000D0AFE013196E10FF11D605D6083C6010D
:1001B000D70169017A011F5F0A97A105B10548F7C8
:1001C00011110EC02A960FB6F894DEBF0FBECDBF38
:1001D000DF91CF911F91FF90EF90DF90CF90089526
:1001E0001150FE013196E10FF11D80810E945200F5
:1001F000E7CF80E487B987E886B9089597B18F7112
:10020000907E892B87B9369A3699FECF84B125B175
:10021000922F089581B18C7F81B980E280B984E00A
:1002200086BF089584EA86BF06B607FEFDCF81B17A
:10023000887F883029F091B1987F81E0903109F46E
:1002400080E0089584E986BF0895880F962F917005
:10025000892B83B984E886BF06B607FEFDCF91B12E
:10026000987F81E0611105C0983109F480E0880F22
:1002700008959034FACF83B984E886BF06B607FEA6
:10028000FDCF81B1887F883211F083E0089580E04E
:100290000895FC0184EC611101C084E886BF06B6B4
:1002A00007FEFDCF91B1987F611531F0903531F4A3
:1002B00093B1908380E008959835F9CF84E0089554
:1002C00087B3806B87BBBE98C49A81E58DB970985F
:1002D00008958FB9779BFECF8FB10895C498089584
:1002E000C49A08950F931F93CF938C010E9412011B
:1002F000C82F811109C060E088E60E942501C82F3F
:10030000811539F00E9422018C2FCF911F910F91FE
:10031000089580E00E943B01C82F8111F3CFF801BE
:1003200080816AE00E94ED098295807F892B0E947E
:100330003B01C82F8111E6CFF80181816AE00E945C
:10034000ED098295807F892B0E943B01C82F811186
:10035000D9CFF80182816AE00E94ED098295807F01
:10036000892B0E943B01C82F8111CCCFF8018381DA
:100370006AE00E94ED098295807F892B0E943B01F3
:10038000C82F8111BFCFF80184816AE00E94ED0976
:100390008295807F892B0E943B01C82F8111B2CFAB
:1003A000F80185816AE00E94ED098295807F892BA2
:1003B0000E943B01C82F8111A5CFF80186816AE018
:1003C0000E94ED098295807F892B0E943B01C82FF6
:1003D00099CFCF92DF92EF92FF920F931F93CF931B
:1003E000DF9300D00F92CDB7DEB77C010E941201DF
:1003F000182F811109C060E088E60E942501182F9E
:10040000811579F00E942201812F0F900F900F909B
:10041000DF91CF911F910F91FF90EF90DF90CF90E0
:10042000089580E00E943B01182F8111EBCF0E94BC
:100430001201182F8111E6CF61E088E60E942501A4
:10044000182F8111DFCF61E06E018FEFC81AD80A33
:10045000C6010E944901182FCA82DB828111D2CFC6
:100460008981982F92959F700AE08F70909F800DE0
:100470001124F701808361E0C6010E944901182F11
:100480008111C0CF8981982F92959F708F70909F16
:10049000800D1124F701818361E0C6010E944901AA
:1004A000182F8111AFCF8981982F92959F708F70EF
:1004B000909F800D1124F701828361E0C6010E94A4
:1004C0004901182F81119ECF8981982F92959F7095
:1004D0008F70909F800D1124F701838361E0C60126
:1004E0000E944901182F81118DCF8981982F9295F3
:1004F0009F708F70909F800D1124F701848361E0BD
:100500008A819B810E944901182F81117BCF8981AB
:10051000982F92959F708F70909F800D1124F701F6
:10052000858360E08A819B810E944901182F811197
:1005300069CF8981982F92959F708F70909F800DC1
:100540001124F70186835ECF8F929F92AF92BF9264
:10055000CF92DF92EF92FF922091B7023091B802D2
:100560006901E12CF12C4B015C0144E0B694A794A5
:10057000979487944A95D1F7821A930AA108B108F3
:1005800053E096958795779567955A95D1F7CC0C5A
:10059000DD1CEE1CFF1C9B01AC012C193D094E0912
:1005A0005F09A091B902B091BA020E94600AC72EF9
:1005B000D82EE92E990FFF08F3E0E594D794C7945D
:1005C000FA95D9F79401A501B401C5010E94DD098E
:1005D000272F382F492F990F550BA4E045953795B4
:1005E0002795AA95D9F7A091BB02B091BC020E94B1
:1005F000600A672F782F892F990F990BB6E08595A0
:1006000077956795BA95D9F79601A701260F371FF9
:10061000481F591F2093B3023093B4024093B50290
:100620005093B602A5E0B0E00E94550A60587F4F93
:100630008F4F9F4F672F782F892F990F990BFF901E
:10064000EF90DF90CF90BF90AF909F908F900895E4
:100650002F923F924F925F926F927F928F929F92D2
:10066000AF92BF92CF92DF92EF92FF920F931F93C0
:10067000CF93DF93CDB7DEB7A4970FB6F894DEBF64
:100680000FBECDBF698F7A8F8B8F9C8F8091B30205
:100690009091B402A091B502B091B602CB2ECC0CD1
:1006A000CC089C01AD016C2D7C2D8C2D9C2D345FD4
:1006B00041405109610971098109910929833A83EE
:1006C0004B835C836D837E878F87988B59016A018A
:1006D0007B018C010E94680A2E833F8348875987DB
:1006E0006A877B878C879D872091BF023091C002EB
:1006F000932F990F990B492F592F692F792F892FF4
:100700000E94680A0CE00E94970B198A3A8B4B8B67
:100710005C8B6D8B7E8B8F8B988F2091C10230917B
:10072000C202932F990F990BAE80BF80C884D984E1
:10073000EA84FB840C851D85492F592F692F792F59
:10074000892F0E94680A232F342F452F562F672F99
:10075000782F892F990F990BA988BA88CB88DC88C4
:10076000ED88FE880F89188D0E94CD0B70588F4F31
:100770009F4F898B9A8B8091BD029091BE021C0184
:10078000412C512C42012D8E3E8E1F8E18A219A293
:100790001AA21BA21CA25101620172018201898965
:1007A0009A890E94680A01E20E94B00B298B3A8B59
:1007B0004B8B5C8B6D8B7E8B8F8B988FA0E00E9418
:1007C000DF0B09F439C12091C7023091C802932F81
:1007D000990F990BAE80BF80C884D984EA84FB84CA
:1007E0000C851D85492F592F692F792F892F0E943C
:1007F000680A2E833F83488759876A877B878C875F
:100800009D872091C5023091C602932F990F990BB5
:10081000A980BA80CB80DC80ED80FE840F851889AA
:10082000492F592F692F792F892F0E94680A01E1DA
:100830000E94970BAE80BF80C884D984EA84FB8471
:100840000C851D850E94CD0B59016A017B018983AE
:10085000192FA0E1B0E0C201498C5A8C6B8C7C8CC2
:1008600084199509A609B7091C012D018D8F3E8EAB
:10087000AF8F58A219A21AA21BA21CA29C01AD0103
:10088000B401C4010FE10E94970B1A821B821C82E3
:100890005D83B62FA72FF82FE92F2091C302309147
:1008A000C402932F990F990B492F592F692F792F34
:1008B000892F03E20E94970B09810E94CD0B5901F9
:1008C0006A017B018C012A813B814C815D816B2F08
:1008D0007A2F8F2F9E2F0E94D60BF5E3AF2EFCE0D0
:1008E000BF2E6401740184010E94680AA988BA8835
:1008F000CB88DC88ED88FE880F89188D0E94C20A9B
:1009000029833A834B835C836D837E878F87988BA3
:100910000DE00E94B00B2E833F83488759876A877A
:100920007B878C879D872091CD023091CE02932FBB
:10093000990F990BAE80BF806A017B01082F1D853E
:10094000492F592F692F792F892F0E94680A0E94F9
:10095000680A09E10E94B00BA980BA80CB80DC80D4
:10096000ED80FE840F8518890E94CD0B2E833F8376
:10097000488759876A877B878C879D872091CB0220
:100980003091CC02932F990F990B492F592F692F32
:10099000792F892F0E94680A03E10E94B00B590148
:1009A0006A017B018C012E813F81488559856A85CA
:1009B0007B858C859D850E94CD0B232F342F452F61
:1009C000562F672F782F892F990F990B59016A019C
:1009D0007B01E82F192F2091C9023091CA02932F71
:1009E000990F990B492F592F692F792F892F04E0DF
:1009F0000E94970B0E2F0E94CD0B232F342F452FD3
:100A0000562FB901CA01A4960FB6F894DEBF0FBEE7
:100A1000CDBFDF91CF911F910F91FF90EF90DF90AD
:100A2000CF90BF90AF909F908F907F906F905F908E
:100A30004F903F902F900895B201C201E4CFEF9202
:100A4000FF920F931F93CF93DF93CDB7DEB72A9713
:100A50000FB6F894DEBF0FBECDBF8F83988769872E
:100A60007A870E946E0187EF0E9469018E010F5FF5
:100A70001F4F7E0187E0E80EF11C80E00E946901B3
:100A8000F80181938F01EE15FF05B9F70E947001FF
:100A90008981A0E0B0E0982F80E024E0880F991FC2
:100AA000AA1FBB1F2A95D1F74A8150E060E070E091
:100AB00034E0440F551F661F771F3A95D1F7842BFA
:100AC000952BA62BB72B2B8122952F70822BE98596
:100AD000FA8580839183A283B3838C81A0E0B0E008
:100AE000982F80E044E0880F991FAA1FBB1F4A95EA
:100AF000D1F74D8150E060E070E0E4E0440F551F15
:100B0000661F771FEA95D1F7842B952BA62BB72B61
:100B10002E8122952F70822BEF81F885808391831F
:100B2000A283B3832A960FB6F894DEBF0FBECDBF63
:100B3000DF91CF911F910F91FF90EF900895EF9269
:100B4000FF920F931F93CF93DF93CDB7DEB76897D4
:100B50000FB6F894DEBF0FBECDBF0E946E0180EDD0
:100B60000E94690180E00E946901182F0E947001B3
:100B700081E0183509F074C00E946E0188E80E9477
:100B800069018E010F5F1F4F7E0189E1E80EF11CA4
:100B900080E00E946901F80181938F01EE15FF0545
:100BA000B9F70E94700189818093B7028A8180938E
:100BB000B8028B818093B9028C818093BA028D81B7
:100BC0008093BB028E818093BC028F818093BD0293
:100BD00088858093BE0289858093BF028A85809331
:100BE000C0028B858093C1028C858093C2028D8563
:100BF0008093C3028E858093C4028F858093C50243
:100C000088898093C60289898093C7028A898093E4
:100C1000C8028B898093C9028C898093CA028D890E
:100C20008093CB028E898093CC028F898093CD02F2
:100C3000888D8093CE020E946E0184E70E94690134
:100C400087E20E9469010E9470010E946E0185E79F
:100C50000E94690180E00E9469010E94700180E0A9
:100C600068960FB6F894DEBF0FBECDBFDF91CF916F
:100C70001F910F91FF90EF900895CF93DF93CDB721
:100C8000DEB728970FB6F894DEBF0FBECDBFBE010A
:100C90006F5F7F4FCE0105960E941F056D817E819B
:100CA0008F81988528960FB6F894DEBF0FBECDBF12
:100CB000DF91CF910C94A402CF93DF93CDB7DEB731
:100CC00028970FB6F894DEBF0FBECDBFBE016F5F91
:100CD0007F4FCE0105960E941F056D817E818F8119
:100CE00098850E94A40269817A818B819C812896D3
:100CF0000FB6F894DEBF0FBECDBFDF91CF910C943D
:100D00002803EF92FF920F931F93CF93DF93CDB7FA
:100D1000DEB728970FB6F894DEBF0FBECDBF7C01BB
:100D20008B01892B69F1672B59F1BE016F5F7F4FF2
:100D3000CE0105960E941F056D817E818F81988569
:100D40000E94A402F7016083718382839383698187
:100D50007A818B819C810E942803F80160837183D2
:100D60008283938380E028960FB6F894DEBF0FBE8F
:100D7000CDBFDF91CF911F910F91FF90EF9008951C
:100D800081E0F1CF0E9412018111FCCF60E080E58B
:100D90000E942501811102C00C9422010E942201AF
:100DA000F1CFCF93DF930F92CDB7DEB70E94120140
:100DB000811110C060E080E50E94250189830E94B6
:100DC000220181E09981911101C080E00F90DF91B3
:100DD000CF91089581E0FACFCF93DF9300D00F92A7
:100DE000CDB7DEB78A839B83698397FD0CC00E94D1
:100DF0001201811108C060E080E50E942501811583
:100E000059F00E94220181E0898389810F900F901F
:100E10000F90DF91CF9108958B810E943B0181114A
:100E2000F0CF8A810E943B018111EBCF89810E9422
:100E30003B0189838111E5CF0E9422010E94C206F5
:100E4000E4CF0F931F93CF93DF93EC018B0197FDBA
:100E50000EC0672B61F00E941201811108C060E092
:100E600080E50E942501811549F00E942201C1E020
:100E70008C2FDF91CF911F910F9108958D2F0E949C
:100E80003B018111F2CF8C2F0E943B018111EDCFEC
:100E90000E9412018111E9CF61E080E50E942501E5
:100EA0008111E3CF60E0C8010E944901C82F811180
:100EB000DCCF0E942201DCCF8F929F92AF92BF9233
:100EC000CF92DF92EF92FF920F931F93CF93DF9316
:100ED0007C01EB018A01209759F14115510571F40C
:100EE00080E0DF91CF911F910F91FF90EF90DF9005
:100EF000CF90BF90AF909F908F90089597FD18C0AE
:100F0000CA01A0E0B0E08E0D9F1DA11DB11D813072
:100F10009048A105B10560F40E941201811108C03A
:100F200060E080E50E942501811521F00E942201E8
:100F300081E0D7CF8F2D0E943B018111F7CF8E2DFD
:100F40000E943B018111F2CFCE2C8FE3C822D12C1D
:100F500080E490E08C199D096C010817190708F4CA
:100F600068015E01AC0CBD1C450188810E943B01FB
:100F70008111DCCF2196CA15DB05B9F70E94220149
:100F80000E94C206EC0CFD1CE4010C191D0921F69F
:100F9000A7CFCF92DF92EF92FF920F931F93CF9341
:100FA000DF937C018B01EA01672BE9F0209709F4BC
:100FB00052C097FD18C0CA01A0E0B0E08E0D9F1D81
:100FC000A11DB11D81309048A105B10560F40E94BA
:100FD0001201811108C060E080E50E9425018115A1
:100FE00061F00E94220181E0DF91CF911F910F916A
:100FF000FF90EF90DF90CF9008958F2D0E943B01DE
:101000008111EFCF8E2D0E943B018111EACF0E940A
:1010100012018111E6CF61E080E50E942501811176
:10102000E0CFC12CD12C7E0181E0E81AF108C80183
:101030008C0D9D1D61E0CE14DF0408F060E00E947D
:1010400049018111CECF2FEFC21AD20ACC16DD068C
:1010500070F30E94220180E0C7CFCDB7DEB766975C
:101060000FB6F894DEBF0FBECDBF1A8A0E944900AA
:1010700085ED91E00E945A0080E690E00E945A00BF
:101080008BE890E00E945A0080E690E00E945A00AF
:101090008FEA90E00E945A000E94F9008DEC90E0E7
:1010A0000E945A000E940A018EED90E00E945A00B0
:1010B0000E9460018FEE90E00E945A000E949F05FE
:1010C00081116CC180E091E00E945A000E94D1061B
:1010D000811167C185E291E00E945A008AE491E0A3
:1010E0000E945A0065E580E090E00E94EC068111C4
:1010F0005BC18BE591E00E945A008AE090E0EFEC42
:10110000F7E03197F1F700C000000197C1F7BE0189
:101110006E5E7F4F0E942107811149C18A89853502
:1011200009F045C184E891E00E945A008DEA91E0FF
:101130000E945A0088ED91E00E945A008DEA91E0E9
:101140000E945A0000E010E082EA92E00E94E90169
:10115000811521F088EE91E00E945A0080E00E9403
:10116000FE008093B1029093B2026DEA72E089EAC8
:1011700092E00E948106811521F089EF91E00E94A2
:101180005A0085ED91E00E945A008DE092E00E94A5
:101190005A008091A40290E00E9467008AE30E94B6
:1011A00052008091A30290E00E9467008AE30E94AF
:1011B00052008091A20290E00E94670085ED91E0CC
:1011C0000E945A0084E192E00E945A008091A60297
:1011D00090E00E9467008FE20E9452008091A70277
:1011E00090E00E9467008FE20E9452008091A80266
:1011F00090E00E94670085ED91E00E945A008BE12B
:1012000092E00E945A00C090A902D090AA02E090F9
:10121000AB02F090AC02F7FE0BC08DE20E945200D0
:10122000F094E094D094C094C11CD11CE11CF11C3A
:10123000B601C70124E630E040E050E00E942F0AEA
:101240006B8B7C8B8D8B9E8BEB88FC88B901CA01E4
:101250000E94A2008EE20E945200FAE0EF16F10412
:1012600018F480E30E9452008B899C890E946700D9
:1012700089E292E00E945A0085ED91E00E945A00B6
:101280008CE292E00E945A006091AD027091AE0231
:101290008091AF029091B0020E94A20087E392E099
:1012A0000E945A008DE392E00E945A008091B102A0
:1012B0009091B2020E94670085ED91E00E945A0071
:1012C0008091A20289838091A3028A838091A402E3
:1012D0008B838091A5028C838091A6028D8380915F
:1012E000A7028E838091A8028F836091A9027091DA
:1012F000AA028091AB029091AC020E944E0A6887CC
:1013000079878A879B876091AD027091AE02809148
:10131000AF029091B0020E944E0A6C877D878E8743
:101320009F878091B1029091B202982789279827D0
:10133000888B998B41E150E0BE016F5F7F4FC80100
:101340000E945C07811136C083E492E00E945A003B
:1013500089E592E00E945A00C8010E94670085ED6D
:1013600091E00E945A000F5E1F4F003F8FE7180761
:1013700030F089E792E00E945A0000E010E08DEA28
:1013800091E00E945A0088EE93E0EFECF7E031978D
:10139000F1F700C000000197C1F7D6CE81E191E0DE
:1013A00093CE86E391E098CE8EE691E0A4CE87E9D5
:1013B00091E0BACE83E692E0D4CFDB018F939F9386
:1013C0000E94550ABF91AF91A29F800D911DA39FCE
:1013D000900DB29F900D11240895992778E0880F01
:1013E000991F961708F0961B881F7A95C9F7809564
:1013F0000895AA1BBB1B51E107C0AA1FBB1FA6175C
:10140000B70710F0A61BB70B881F991F5A95A9F7AD
:1014100080959095BC01CD010895A1E21A2EAA1BDA
:10142000BB1BFD010DC0AA1FBB1FEE1FFF1FA21794
:10143000B307E407F50720F0A21BB30BE40BF50B91
:10144000661F771F881F991F1A9469F7609570951A
:10145000809590959B01AC01BD01CF010895052EAB
:1014600097FB1EF400940E94460A57FD07D00E9485
:101470000D0A07FC03D04EF40C94460A5095409593
:10148000309521953F4F4F4F5F4F08959095809530
:10149000709561957F4F8F4F9F4F089569279627CD
:1014A000692778278727782708950E94EB0BA59F47
:1014B000900DB49F900DA49F800D911D112408954F
:1014C000B7FF0C94550A0E94550A821B930B08958E
:1014D000DF93CF931F930F939A9DF02D219FF00DD3
:1014E0008B9DF00D8A9DE02DF10D039FF00D029F65
:1014F000E00DF11D4E9DE00DF11D5E9DF00D4F9D27
:10150000F00D7F936F93BF92AF925F934F93D5018E
:101510000E94EB0B8B01AC01D7010E94EB0BEB019E
:10152000E80FF91FD6010E94B70A2F913F91D6010B
:101530000E94EB0BC60FD71FE81FF91FAF91BF9199
:101540000E94B70A2F913F910E94EB0BC60FD71F45
:10155000E81FF91FD6010E94EB0BE60FF71F980159
:10156000BE01CF010F911F91CF91DF9108950E948D
:10157000EB0B460F571FC81FD91F08F4319608956B
:10158000689401C0E894F92FF12B12F00C94F40A3E
:10159000A0E0B0E0EEECFAE00C94660B092E0594A6
:1015A00022F40E94500B112392F4F0E80F26FFEF73
:1015B000E094F09400951095B094C094D094A194C8
:1015C000BF0ACF0ADF0AEF0AFF0A0F0B1F0B0E94A8
:1015D000FF0A07FC0E94500BCDB7DEB7ECE00C947D
:1015E000820B689401C0E8948F929F92CF93DF930F
:1015F0000E94FF0ADF91CF919F908F9008958824D9
:101600009924F401E401B0E49F93AA279A158B046E
:101610009C04ED05FE05CF05D007A10798F4AD2F7A
:10162000DC2FCF2FFE2FE92D982C892E982F872F76
:10163000762F652F542F432F322F2227B85031F7A2
:10164000BF9127C01B2EBF91BB27220F331F441F02
:10165000551F661F771F881F991F881C991CEE1F36
:10166000FF1FCC1FDD1FAA1FBB1F8A149B04EC05A4
:10167000FD05CE05DF05A007B10748F08A189B08D5
:10168000EC09FD09CE09DF09A00BB10B21601A940A
:10169000E1F62EF49401AF01BE01CD01000C0895D6
:1016A00060957095809590953095409550952195D1
:1016B0003F4F4F4F5F4F6F4F7F4F8F4F9F4F08955B
:1016C0002F923F924F925F926F927F928F929F9252
:1016D000AF92BF92CF92DF92EF92FF920F931F9340
:1016E000CF93DF93CDB7DEB7CA1BDB0B0FB6F894F1
:1016F000DEBF0FBECDBF09942A88398848885F8431
:101700006E847D848C849B84AA84B984C884DF80A1
:10171000EE80FD800C811B81AA81B981CE0FD11D85
:101720000FB6F894DEBF0FBECDBFED010895002EB9
:10173000083090F0982F872F762F652F542F432F46
:10174000322F22270850F4CF220F331F441F551F7A
:10175000661F771F881F991F0A95B2F7002D0895FD
:1017600097FD1094002E083098F00850232F342F46
:10177000452F562F672F782F892F912DF4CF159451
:1017800097958795779567955795479537952795B9
:101790000A95AAF71124002D08952A0D3B1D4C1D12
:1017A0005D1D6E1D7F1D801F911F08952A193B0925
:1017B0004C095D096E097F09800B910B0895002487
:1017C000A7FD00942A1730054005500560057005F7
:1017D000800590050895A29FB001B39FC001A39F0B
:1017E000700D811D1124911DB29F700D811D11245A
:0817F000911D0895F894FFCF4C
:1017F8003D3D3D3D3D3D3D3D3D3D3D3D3D3D3D3D11
:101808003D3D3D3D3D3D3D3D3D3D3D3D3D3D3D3D00
:101818003D3D3D3D3D3D3D3D0D0A002041546D653A
:101828006761313620444154412041435155495361
:101838004954494F4E2053595354454D0D0A0049B8
:101848006E697469616C697A696E6720706572691E
:1018580070686572616C732E2E2E0D0A0041444328
:10186800202020202020203A204F4B0D0A0049320A
:10187800432F5457492020203A204F4B0D0A00533C
:101888005049202020202020203A204F4B0D0A00CC
:10189800424D50323830202020203A204F4B0D0A3C
:1018A80000424D50323830202020203A20455252F4
:1018B8004F520D0A00415432344332353620203A13
:1018C800204F4B0D0A004154323443323536202024
:1018D8003A204552524F520D0A00454550524F4D3D
:1018E80020746573742E2E2E0D0A00454550524FF4
:1018F8004D2077726974653A204F4B0D0A004545B3
:1019080050524F4D2077726974653A204552524FB4
:10191800520D0A00454550524F4D207265616420B2
:101928003A204F4B0D0A00454550524F4D207265E5
:101938006164203A204552524F520D0A002D2D2D38
:101948002D2D2D2D2D2D2D2D2D2D2D2D2D2D2D2DBF
:101958002D2D2D2D2D2D2D2D2D2D2D2D2D2D2D2DAF
:101968002D2D2D2D2D0D0A0053797374656D207260
:10197800656164792E0D0A00525443205245414452
:10198800204552524F520D0A00424D5032383020F5
:1019980052454144204552524F520D0A0054494D78
:1019A800453A2000444154453A200054454D50459D
:1019B8005241545552453A20002043005052455355
:1019C800535552453A20002050610D0A00414443C6
:1019D8003A2000454550524F4D3A20444154412049
:1019E80053544F5245440D0A004144445245535301
:1019F8003A2000454550524F4D3A205752495445D8
:101A0800204552524F520D0A00454550524F4D2025
:101A18004D454D4F52592046554C4C202D2057527C
:101A2800415050494E4720544F2053544152540D71
:021A38000A00A2
:00000001FF
